S01200004D6F6E65795F536166652E737265632C
S11300000C942A000C943F000C943F000C943F0085
S11300100C943F000C943F000C943F000C943F0060
S11300200C943F000C943F000C943F000C943F0050
S11300300C943F000C943F000C943F000C943F0040
S11300400C943F000C943F000C943F000C943F0030
S11300500C943F0011241FBECFE5D8E0DEBFCDBF16
S113006010E0A0E6B0E0E4E7F1E102C005900D92F3
S1130070A43BB107D9F70E9469040C94B8080C9406
S11300800000613039F138F0623009F442C0633065
S113009009F45EC00895413069F44AB321E030E0C8
S11300A0B90102C0660F771F8A95E2F7CB01842B52
S11300B08ABB089541116AC04AB321E030E0B90116
S11300C002C0660F771F8A95E2F7CB0180958423DF
S11300D08ABB0895413069F447B321E030E0B901A7
S11300E002C0660F771F8A95E2F7CB01842B87BB8A
S11300F0089541114BC047B321E030E0B90102C07B
S1130100660F771F8A95E2F7CB018095842387BB1E
S11301100895413069F444B321E030E0B90102C0EC
S1130120660F771F8A95E2F7CB01842B84BB089571
S113013041112CC044B321E030E0B90102C0660F84
S1130140771F8A95E2F7CB018095842384BB0895B9
S1130150413069F441B321E030E0B90102C0660FD7
S1130160771F8A95E2F7CB01842B81BB0895411157
S11301700DC041B321E030E0B90102C0660F771F22
S11301808A95E2F7CB018095842381BB0895613081
S113019039F138F0623009F442C0633009F45EC0CA
S11301A00895413069F44BB321E030E0B90102C055
S11301B0660F771F8A95E2F7CB01842B8BBB0895DA
S11301C041116AC04BB321E030E0B90102C0660FAF
S11301D0771F8A95E2F7CB01809584238BBB089522
S11301E0413069F448B321E030E0B90102C0660F40
S11301F0771F8A95E2F7CB01842B88BB08954111C0
S11302004BC048B321E030E0B90102C0660F771F4C
S11302108A95E2F7CB018095842388BB0895413009
S113022069F445B321E030E0B90102C0660F771FDD
S11302308A95E2F7CB01842B85BB089541112CC02C
S113024045B321E030E0B90102C0660F771F8A95FB
S1130250E2F7CB018095842385BB0895413069F48E
S113026042B321E030E0B90102C0660F771F8A95DE
S1130270E2F7CB01842B82BB089541110DC042B338
S113028021E030E0B90102C0660F771F8A95E2F7DA
S1130290CB018095842382BB08956130E9F030F06E
S11302A0623081F1633009F443C057C099B321E04F
S11302B030E0A901082E02C0440F551F0A94E2F74A
S11302C0292F30E024233523A90102C056954795F0
S11302D08A95E2F7942F41C096B321E030E0A9015A
S11302E0082E02C0440F551F0A94E2F7292F30E06C
S11302F024233523A90102C0569547958A95E2F730
S1130300942F2BC093B321E030E0A901082E02C042
S1130310440F551F0A94E2F7292F30E02423352394
S1130320A90102C0569547958A95E2F7942F15C006
S113033090B321E030E0A901082E02C0440F551FFC
S11303400A94E2F7292F30E024233523A90102C0BF
S1130350569547958A95E2F7942F892F0895813011
S113036079F028F08230A9F08330E1F0089561300B
S113037019F48FEF8ABB089561111CC01ABA08954D
S1130380613019F48FEF87BB0895611113C017BA58
S11303900895613019F48FEF84BB089561110AC088
S11303A017BA0895613019F48FEF81BB0895611174
S11303B001C011BA0895813041F028F0823039F03B
S11303C0833039F008956BBB089568BB089565BB0D
S11303D0089562BB0895CF93C82F6130A9F441E01A
S11303E0682F80E00E94410041E06C2F81E00E9470
S11303F0410041E06C2F82E00E94410041E06C2FFB
S113040083E00E94410016C0611114C040E0682FCF
S113041080E00E94410040E06C2F81E00E94410096
S113042040E06C2F82E00E94410040E06C2F83E0AA
S11304300E944100CF910895CF93C82F6130A9F451
S113044041E0682F84E00E94410041E06C2F85E088
S11304500E94410041E06C2F86E00E94410041E08F
S11304606C2F87E00E94410016C0611114C040E067
S1130470682F84E00E94410040E06C2F85E00E94D8
S1130480410040E06C2F86E00E94410040E06C2F68
S113049087E00E944100CF9108956F70813069F028
S11304A028F0823089F08330B1F008958BB3807FD7
S11304B08BBB8BB3682B6BBB089588B3807F88BBE1
S11304C088B3682B68BB089585B3807F85BB85B3EB
S11304D0682B65BB089582B3807F82BB82B3682B8F
S11304E062BB0895607F813069F028F0823089F022
S11304F08330B1F008958BB38F708BBB8BB3682BB3
S11305006BBB089588B38F7088BB88B3682B68BBB6
S1130510089585B38F7085BB85B3682B65BB08953B
S113052082B38F7082BB82B3682B62BB08958EBB8B
S11305309FBB6DBB8CB384608CBB8CB382608CBB63
S1130540E199FECF08958EBB9FBB8CB381608CBBB9
S11305508DB30895CF93C82F61110CC061E00E9440
S1130560EB0160E08C2F0E941C0260EF8C2F0E9434
S113057072020DC0613059F460E00E94EB0161E049
S11305808C2F0E941C026FE08C2F0E947202CF916C
S11305900895DF92EF92FF920F931F93CF93DF930F
S11305A0CDB7DEB760970FB6F894DEBF0FBECDBFF0
S11305B0F82E80E1E1E6F0E0DE01119601900D9263
S11305C08A95E1F7662371F1DD24DA94E12C5AC0AF
S11305D06FE08F2D0E944D0240E06F2D8E2D0E9402
S11305E0C70000E019C06F2D84E0800F0E944D0108
S11305F0182F811110C0EE2DF0E0EE0FFF1FEE0F4B
S1130600FF1F81E090E08C0F9D1FE80FF91FE00FA2
S1130610F11DD08003C00F5F043028F31123A9F12A
S1130620E39403C0DD24DA94E12C93E09E1580F674
S11306302CC060EF8F2D0E94720240E06F2D84E089
S11306408E0D0E94C70000E018C06F2D802F0E94FD
S11306504D01182F811110C0EE2DF0E0EE0FFF1F99
S1130660EE0FFF1F81E090E08C0F9D1FE80FF91F34
S1130670E00FF11DD08003C00F5F043030F311236D
S113068021F0E39493E09E15A0F68D2D60960FB6AD
S1130690F894DEBF0FBECDBFDF91CF911F910F91B4
S11306A0FF90EF90DF900895CF93DF93C82FD62F5C
S11306B041E00E94C7008FE99FE00197F1F700C075
S11306C0000040E06D2F8C2F0E94C700DF91CF9176
S11306D00895EF920F931F93CF93DF93D62F142F88
S11306E0C22F6E2D0E94DB0140E0612F8D2F0E94EE
S11306F0C700602F8C2F0E945403DF91CF911F916C
S11307000F91EF900895DF92EF92FF920F931F9352
S1130710CF93DF93C82FD62F142FF22E61E00E94BF
S1130720AF0141E0612F8D2F0E94410041E0602F15
S11307308F2D0E9441002FEF81EE94E021508040E4
S11307409040E1F700C000000F2EF8E3EF2EF02DEB
S11307502F2D412F6D2F8C2F0E9469038FEC97E072
S11307600197F1F700C000000F2EFEE0EF2EF02DF0
S11307702F2D412F6D2F8C2F0E9469038FEC97E052
S11307800197F1F700C00000EE24E3942F2D412FD0
S11307906D2F8C2F0E9469038FE99FE00197F1F779
S11307A000C000000F2EF6E0EF2EF02D2F2D412F6C
S11307B06D2F8C2F0E9469038FE19EE40197F1F75E
S11307C000C00000DF91CF911F910F91FF90EF9037
S11307D0DF900895EF920F931F93CF93DF93D62F5B
S11307E0142FC22F6E2D0E94DB0141E0612F8D2F4B
S11307F00E94C700602F8C2F0E945403DF91CF9179
S11308001F910F91EF900895AF92BF92CF92DF9214
S1130810EF92FF920F931F93CF93DF93A82EB62EE0
S1130820C42ED22E102FE70108C0012F2D2D4C2DE0
S11308306B2D8A2D0E94EA032196E880E110F5CF02
S1130840DF91CF911F910F91FF90EF90DF90CF90A8
S1130850BF90AF900895BF92CF92DF92EF92FF9234
S11308600F931F93CF93DF93CDB7DEB727970FB6C0
S1130870F894DEBF0FBECDBF182FD62EC42EB22ED5
S11308801F92EF9281E790E09F938F93CE010196A0
S11308907C019F938F930E94CE052B2D4C2D6D2DA3
S11308A0812F0E9404040F900F900F900F900F90CF
S11308B00F9027960FB6F894DEBF0FBECDBFDF9121
S11308C0CF911F910F91FF90EF90DF90CF90BF9049
S11308D00895CF93DF93CDB7DEB728970FB6F8947A
S11308E0DEBF0FBECDBF00E026E040E067E081E060
S11308F00E94830341E060E082E00E94AA0281E357
S113090092E39A83898383E394E39C838B8310E04B
S113091009C081E090E08C0F9D1F810F911D0E9402
S113092097021F5FE1E0F0E0EC0FFD1FE10FF11D06
S113093060816111EECF0F2EF4E7EF2EF0E0FF2E71
S1130940F02D00E026E040E067E081E00E9404042E
S11309502FEF81EE94E0215080409040E1F700C0F9
S113096000000F2EF0ECEF2EF02D26E040E067E0C3
S113097081E00E94690310E041E060E082E00E94AF
S1130980C9028F3FC9F1909160009923A9F1E5E074
S1130990F0E0EC0FFD1FE10FF11D8083E82E00E075
S11309A026E040E067E081E00E94EA032FEF81EE59
S11309B094E0215080409040E1F700C0000068942A
S11309C0EE24E4F826E040E067E081E00E94690359
S11309D00F2EFAE2EF2EF02D26E040E067E081E0F2
S11309E00E94EA032FEF81EE94E021508040904072
S11309F0E1F700C000001F5F143009F0BDCF1430D0
S1130A0009F0B1C0809160008111A6C0ACC08D2DE9
S1130A1090E0E5E0F0E0EC0FFD1FE80FF91FF08037
S1130A2001E010E00C0F1D1F080F191FC8010E94E0
S1130A30A302F8122BC023E0D2128CC0EE24E3945C
S1130A4000E026E040E067E081E00E9469038FEF68
S1130A5091EE24E0815090402040E1F700C0000076
S1130A600F2EF5E8EF2EF0E0FF2EF02D26E040E00B
S1130A7067E081E00E9404048FEF91EE24E081504E
S1130A8090402040E1F700C0000064C0C8010E940B
S1130A90A302F81609F45EC080916000815080932F
S1130AA06000EE24E39400E026E040E067E081E0AB
S1130AB00E9469038FEF91EE24E081509040204022
S1130AC0E1F700C000000F2EF6E9EF2EF0E0FF2E54
S1130AD0F02D26E040E067E081E00E9404048FEFFF
S1130AE091EE24E0815090402040E1F700C00000E6
S1130AF0E090600026E040E067E081E00E942B0483
S1130B008FEF91EE24E0815090402040E1F700C047
S1130B1000000F2EFDE9EF2EF0E0FF2EF02D26E071
S1130B2040E067E081E00E9404048FEF91EE24E04E
S1130B30815090402040E1F700C000000F2EF0ECFF
S1130B40EF2EF02D26E040E067E081E00E9469038B
S1130B5010E012CFD39401C0D12C83E08D1508F09E
S1130B6056CF10E009CF80916000811105CF0F2E80
S1130B70F5EAEF2EF0E0FF2EF02D00E026E040E055
S1130B8067E081E00E9404049FEF21EE84E091502D
S1130B9020408040E1F700C00000EECEAEE0B0E0BF
S1130BA0E4EDF5E00C948F080D891E8986E08C83B2
S1130BB01A8309838FEF9FE79E838D83AE01475E7F
S1130BC05F4F6F89788DCE0101960E94F005EF8109
S1130BD0F885E00FF11F10822E96E4E00C94AB0828
S1130BE0ABE0B0E0E6EFF5E00C9481086C017B012A
S1130BF08A01FC0117821682838181FFCCC1CE0158
S1130C0001963C01F6019381F70193FD859193FFD1
S1130C1081917F01882309F4BAC1853239F493FDA7
S1130C20859193FF81917F01853229F4B60190E08B
S1130C300E94E707E7CF912C212C312CFFE1F3151B
S1130C40D8F08B3279F038F4803279F08332A1F421
S1130C50232D20611DC08D3261F0803369F4232D72
S1130C60216016C0832D8260382EE32DE4603E2E71
S1130C702AC0F32DF8601DC037FC2DC020ED280FCD
S1130C802A3040F08E32B9F436FC81C1232D206421
S1130C90322E19C036FE06C08AE0989E200D11241B
S1130CA0922E11C0EAE02E9E200D1124222EF32D47
S1130CB0F0623F2E08C08C3621F4832D8068382ED4
S1130CC002C0883641F4F70193FD859193FF819129
S1130CD07F018111B3CF982F9F7D9554933028F4D1
S1130CE00C5F1F4F9FE399830DC0833631F0833728
S1130CF071F0833509F059C021C0F80180818983DE
S1130D000E5F1F4F88248394912C530113C0280134
S1130D10F2E04F0E511CF801A080B18036FE03C0F2
S1130D20692D70E002C06FEF7FEFC5010E94DC0700
S1130D304C018201F32DFF773F2E16C0280122E0DB
S1130D40420E511CF801A080B18036FE03C0692D0B
S1130D5070E002C06FEF7FEFC5010E94D1074C0124
S1130D60F32DF0683F2E820133FC1BC0822D90E0EE
S1130D7088169906B0F4B60180E290E00E94E70775
S1130D802A94F4CFF50137FC859137FE81915F01F8
S1130D90B60190E00E94E70721102A9421E0821A0C
S1130DA091088114910471F7E8C0843611F08936F2
S1130DB041F5F80137FE07C060817181828193811A
S1130DC00C5F1F4F08C060817181072E000C880BD7
S1130DD0990B0E5F1F4FF32DFF763F2E97FF09C02F
S1130DE090958095709561957F4F8F4F9F4FF068D8
S1130DF03F2E2AE030E0A3010E942308882E8618A3
S1130E0045C0853731F4232D2F7EB22E2AE030E001
S1130E1025C0932D997FB92E8F36C1F018F48835EB
S1130E2079F0B5C0803719F0883721F0B0C0E92FC8
S1130E30E061BE2EB4FE0DC0FB2DF460BF2E09C0D0
S1130E4034FE0AC0292F2660B22E06C028E030E006
S1130E5005C020E130E002C020E132E0F801B7FE35
S1130E6007C060817181828193810C5F1F4F06C02E
S1130E706081718180E090E00E5F1F4FA3010E94AA
S1130E802308882E8618FB2DFF773F2E36FE0DC0D3
S1130E90232D2E7FA22E891458F434FE0BC032FC6D
S1130EA009C0832D8E7EA82E05C0B82CA32C03C0A8
S1130EB0B82C01C0B92CA4FE0FC0FE01E80DF11D31
S1130EC08081803321F49A2D997EA92E09C0A2FE37
S1130ED006C0B394B39404C08A2D867809F0B39401
S1130EE0A3FC11C0A0FE06C0B21488F4280C922CF6
S1130EF09B180EC0B21460F4B60180E290E00E9428
S1130F00E707B394F7CFB21418F42B1802C0982C47
S1130F10212CA4FE10C0B60180E390E00E94E707F4
S1130F20A2FE17C0A1FC03C088E790E002C088E5D8
S1130F3090E0B6010CC08A2D867859F0A1FE02C05B
S1130F408BE201C080E2A7FC8DE2B60190E00E9432
S1130F50E707891438F4B60180E390E00E94E707BC
S1130F609A94F7CF8A94F301E80DF11D8081B601BC
S1130F7090E00E94E7078110F5CF222009F442CEC9
S1130F80B60180E290E00E94E7072A94F6CFF601CA
S1130F908681978102C08FEF9FEF2B96E2E10C943C
S1130FA09D08FC010590615070400110D8F78095B0
S1130FB090958E0F9F1F0895FC0161507040019021
S1130FC00110D8F7809590958E0F9F1F08950F9369
S1130FD01F93CF93DF93FB01238121FD03C08FEF88
S1130FE09FEF2CC022FF16C0468157812481358192
S1130FF04217530744F4A081B1819D012F5F3F4FF5
S1131000318320838C93268137812F5F3F4F378331
S1131010268314C08B01EC01FB010084F185E02DD3
S11310200995892BE1F6D80116968D919C91179715
S1131030019617969C938E931697CE01DF91CF91CC
S11310401F910F910895FA01AA27283051F12031F8
S113105081F1E8946F936E7F6E5F7F4F8F4F9F4F48
S1131060AF4FB1E03ED0B4E03CD0670F781F891F8A
S11310709A1FA11D680F791F8A1F911DA11D6A0F58
S1131080711D811D911DA11D20D009F468943F910B
S11310902AE0269F11243019305D3193DEF6CF010A
S11310A00895462F4770405D4193B3E00FD0C9F7D0
S11310B0F6CF462F4F70405D4A3318F0495D31FD3D
S11310C04052419302D0A9F7EACFB4E0A695979590
S11310D0879577956795BA95C9F700976105710566
S11310E008959B01AC010A2E0694579547953795B0
S11310F02795BA95C9F7620F731F841F951FA01D0A
S113110008952F923F924F925F926F927F928F92A7
S11311109F92AF92BF92CF92DF92EF92FF920F9382
S11311201F93CF93DF93CDB7DEB7CA1BDB0B0FB68C
S1131130F894DEBF0FBECDBF09942A883988488849
S11311405F846E847D848C849B84AA84B984C884DF
S1131150DF80EE80FD800C811B81AA81B981CE0FD6
S1131160D11D0FB6F894DEBF0FBECDBFED010895BB
S1071170F894FFCF1D
S1131174033738392F3435362A3132332D41303D53
S11311842B256400456E7465722050617373776F08
S113119472643A2000436F72726563742050617301
S11311A473776F7264005374696C6C2000205472FA
S11311B469616C73004572726F7220506173737746
S10711C46F726400DE
S9030000FC
